:1000000012C019C018C017C016C015C014C013C044
:1000100012C011C010C00FC00EC00DC00CC00BC06C
:100020000AC009C008C011241FBECFE5D4E0DEBF5E
:10003000CDBF02D072C0E4CF26D011C063E583E506
:1000400042D070E060E090E080E02AD02FE38DE0C5
:1000500093E0215080409040E1F700C00000D0E0E4
:10006000C0E0BE01CE011CD066E486E42CD087EA55
:1000700091E60197F1F700C000002196C03197E2A8
:10008000D90779F7DBCF81EA8FBD8BE08EBD87B3CF
:10009000866087BB81B3806C81BB9698C2980895B7
:1000A0009C01220F331F820F931F880F991F9B0102
:1000B000220F331F620F731F660F771F7BBD6ABD50
:1000C00099BD88BD0895863449F0823591F0833515
:1000D00049F4C19882B3897F82BB04C0C19A82B3BC
:1000E000897F82BB663451F0623569F0633581F0F7
:1000F0000895C19A82B3866082BBF4CFC09A82B35E
:10010000887F82BB0895C09A82B3876082BB0895BE
:0E011000C09882B3887F82BBEBCFF894FFCFFC
:00000001FF
